{
  "_format": "hh-sol-artifact-1",
  "contractName": "CrowdFunding",
  "sourceName": "contracts/CrowdFunding.sol",
  "abi": [
    {
      "inputs": [],
      "name": "CampaignHasNotReachedDonationGoal",
      "type": "error"
    },
    {
      "inputs": [],
      "name": "CampaignHasReachedDonationGoal",
      "type": "error"
    },
    {
      "inputs": [],
      "name": "CampaignIsClosed",
      "type": "error"
    },
    {
      "inputs": [],
      "name": "DonationValueBelowMinimum",
      "type": "error"
    },
    {
      "inputs": [],
      "name": "IllegalDonation",
      "type": "error"
    },
    {
      "inputs": [],
      "name": "IllegalParameters",
      "type": "error"
    },
    {
      "inputs": [],
      "name": "NeglectedCampaign",
      "type": "error"
    },
    {
      "inputs": [],
      "name": "NotDonator",
      "type": "error"
    },
    {
      "inputs": [],
      "name": "NotOwner",
      "type": "error"
    },
    {
      "inputs": [],
      "name": "OutOfBoundsIndex",
      "type": "error"
    },
    {
      "inputs": [],
      "name": "PullAllDonationNotAllowed",
      "type": "error"
    },
    {
      "inputs": [],
      "name": "pullDonationExternalNotAllowed",
      "type": "error"
    },
    {
      "anonymous": false,
      "inputs": [
        {
          "indexed": false,
          "internalType": "uint256",
          "name": "",
          "type": "uint256"
        }
      ],
      "name": "Returns",
      "type": "event"
    },
    {
      "inputs": [
        {
          "internalType": "int256",
          "name": "campaignID",
          "type": "int256"
        }
      ],
      "name": "Donate",
      "outputs": [],
      "stateMutability": "payable",
      "type": "function"
    },
    {
      "inputs": [],
      "name": "MINIMUM_DONATION_VALUE",
      "outputs": [
        {
          "internalType": "uint256",
          "name": "",
          "type": "uint256"
        }
      ],
      "stateMutability": "view",
      "type": "function"
    },
    {
      "inputs": [
        {
          "internalType": "uint256",
          "name": "",
          "type": "uint256"
        }
      ],
      "name": "campaigns",
      "outputs": [
        {
          "internalType": "string",
          "name": "campaignName",
          "type": "string"
        },
        {
          "internalType": "string",
          "name": "description",
          "type": "string"
        },
        {
          "internalType": "address",
          "name": "ownerID",
          "type": "address"
        },
        {
          "internalType": "uint256",
          "name": "endDate",
          "type": "uint256"
        },
        {
          "internalType": "uint256",
          "name": "solidityEndDate",
          "type": "uint256"
        },
        {
          "internalType": "uint256",
          "name": "donationGoal",
          "type": "uint256"
        },
        {
          "internalType": "uint256",
          "name": "raisedAmount",
          "type": "uint256"
        },
        {
          "internalType": "uint256",
          "name": "campaignID",
          "type": "uint256"
        },
        {
          "internalType": "bool",
          "name": "active",
          "type": "bool"
        }
      ],
      "stateMutability": "view",
      "type": "function"
    },
    {
      "inputs": [
        {
          "internalType": "int256",
          "name": "campaignID",
          "type": "int256"
        }
      ],
      "name": "closeCampaign",
      "outputs": [],
      "stateMutability": "payable",
      "type": "function"
    },
    {
      "inputs": [
        {
          "internalType": "string",
          "name": "_campaignName",
          "type": "string"
        },
        {
          "internalType": "string",
          "name": "_description",
          "type": "string"
        },
        {
          "internalType": "int256",
          "name": "_endDate",
          "type": "int256"
        },
        {
          "internalType": "int256",
          "name": "_donationGoal",
          "type": "int256"
        }
      ],
      "name": "createCampaign",
      "outputs": [],
      "stateMutability": "nonpayable",
      "type": "function"
    },
    {
      "inputs": [
        {
          "internalType": "int256",
          "name": "campaignID",
          "type": "int256"
        },
        {
          "internalType": "int256",
          "name": "index",
          "type": "int256"
        }
      ],
      "name": "getDonatorAddress",
      "outputs": [
        {
          "internalType": "address",
          "name": "",
          "type": "address"
        }
      ],
      "stateMutability": "view",
      "type": "function"
    },
    {
      "inputs": [
        {
          "internalType": "int256",
          "name": "campaignID",
          "type": "int256"
        },
        {
          "internalType": "address",
          "name": "userAddress",
          "type": "address"
        }
      ],
      "name": "getDonatorDonation",
      "outputs": [
        {
          "internalType": "uint256",
          "name": "",
          "type": "uint256"
        }
      ],
      "stateMutability": "view",
      "type": "function"
    },
    {
      "inputs": [
        {
          "internalType": "int256",
          "name": "campaignID",
          "type": "int256"
        }
      ],
      "name": "getNumberOfDonaters",
      "outputs": [
        {
          "internalType": "uint256",
          "name": "",
          "type": "uint256"
        }
      ],
      "stateMutability": "view",
      "type": "function"
    },
    {
      "inputs": [],
      "name": "projectCount",
      "outputs": [
        {
          "internalType": "uint256",
          "name": "",
          "type": "uint256"
        }
      ],
      "stateMutability": "view",
      "type": "function"
    },
    {
      "inputs": [
        {
          "internalType": "int256",
          "name": "campaignID",
          "type": "int256"
        }
      ],
      "name": "pullAllCampaignDonations",
      "outputs": [],
      "stateMutability": "nonpayable",
      "type": "function"
    },
    {
      "inputs": [
        {
          "internalType": "int256",
          "name": "campaignID",
          "type": "int256"
        },
        {
          "internalType": "int256",
          "name": "_pullDonationAmount",
          "type": "int256"
        }
      ],
      "name": "pullDonation",
      "outputs": [],
      "stateMutability": "nonpayable",
      "type": "function"
    },
    {
      "inputs": [
        {
          "internalType": "int256",
          "name": "campaignID",
          "type": "int256"
        },
        {
          "internalType": "address",
          "name": "donatorAddress",
          "type": "address"
        }
      ],
      "name": "pullDonationExternal",
      "outputs": [],
      "stateMutability": "nonpayable",
      "type": "function"
    }
  ],
  "bytecode": "0x608060405234801561001057600080fd5b5061382b806100206000396000f3fe6080604052600436106100a75760003560e01c80634e0c1266116100645780634e0c1266146101c957806358dd20a1146101f25780637f65f3f91461020e578063a4f4770714610237578063cb3e2fc914610260578063f21b7fd01461029d576100a7565b8063115e5915146100ac578063133757b9146100e95780631365a61814610112578063141961bc1461013d57806336fbad261461018257806345932a8e146101ad575b600080fd5b3480156100b857600080fd5b506100d360048036038101906100ce9190612fa9565b6102da565b6040516100e0919061302a565b60405180910390f35b3480156100f557600080fd5b50610110600480360381019061010b9190613045565b610393565b005b34801561011e57600080fd5b50610127610c75565b604051610134919061308b565b60405180910390f35b34801561014957600080fd5b50610164600480360381019061015f91906130d2565b610c80565b604051610179999897969594939291906131b3565b60405180910390f35b34801561018e57600080fd5b50610197610e1b565b6040516101a4919061308b565b60405180910390f35b6101c760048036038101906101c29190613045565b610e21565b005b3480156101d557600080fd5b506101f060048036038101906101eb919061327a565b611399565b005b61020c60048036038101906102079190613045565b611bd2565b005b34801561021a57600080fd5b50610235600480360381019061023091906133ef565b612122565b005b34801561024357600080fd5b5061025e60048036038101906102599190612fa9565b612419565b005b34801561026c57600080fd5b5061028760048036038101906102829190613045565b612d7d565b604051610294919061308b565b60405180910390f35b3480156102a957600080fd5b506102c460048036038101906102bf919061327a565b612dfc565b6040516102d1919061308b565b60405180910390f35b60008260008112806102f157506000805490508112155b15610328576040517fa2b4a98200000000000000000000000000000000000000000000000000000000815260040160405180910390fd5b6002848154811061033c5761033b61348e565b5b9060005260206000209060020201600001838154811061035f5761035e61348e565b5b9060005260206000200160009054906101000a900473ffffffffffffffffffffffffffffffffffffffff1691505092915050565b8060008112806103a857506000805490508112155b156103df576040517fa2b4a98200000000000000000000000000000000000000000000000000000000815260040160405180910390fd5b600081905060008082815481106103f9576103f861348e565b5b906000526020600020906009020160405180610120016040529081600082018054610423906134ec565b80601f016020809104026020016040519081016040528092919081815260200182805461044f906134ec565b801561049c5780601f106104715761010080835404028352916020019161049c565b820191906000526020600020905b81548152906001019060200180831161047f57829003601f168201915b505050505081526020016001820180546104b5906134ec565b80601f01602080910402602001604051908101604052809291908181526020018280546104e1906134ec565b801561052e5780601f106105035761010080835404028352916020019161052e565b820191906000526020600020905b81548152906001019060200180831161051157829003601f168201915b505050505081526020016002820160009054906101000a900473ffffffffffffffffffffffffffffffffffffffff1673ffffffffffffffffffffffffffffffffffffffff1673ffffffffffffffffffffffffffffffffffffffff16815260200160038201548152602001600482015481526020016005820154815260200160068201548152602001600782015481526020016008820160009054906101000a900460ff16151515158152505090506000151581610100015115151415610620576040517febd7e12900000000000000000000000000000000000000000000000000000000815260040160405180910390fd5b8360001515600082815481106106395761063861348e565b5b906000526020600020906009020160080160009054906101000a900460ff1615151415610692576040517febd7e12900000000000000000000000000000000000000000000000000000000815260040160405180910390fd5b42600082815481106106a7576106a661348e565b5b90600052602060002090600902016004015411156106f1576040517ff138e00b00000000000000000000000000000000000000000000000000000000815260040160405180910390fd5b605a600082815481106107075761070661348e565b5b90600052602060002090600902016004015442610724919061354d565b116107ad576000818154811061073d5761073c61348e565b5b906000526020600020906009020160050154600082815481106107635761076261348e565b5b906000526020600020906009020160060154106107ac576040517ff138e00b00000000000000000000000000000000000000000000000000000000815260040160405180910390fd5b5b60008086815481106107c2576107c161348e565b5b906000526020600020906009020190506000600287815481106107e8576107e761348e565b5b90600052602060002090600202019050600080600060018460000180549050610811919061354d565b90505b6000811115610a4c578360000181815481106108335761083261348e565b5b9060005260206000200160009054906101000a900473ffffffffffffffffffffffffffffffffffffffff1692508273ffffffffffffffffffffffffffffffffffffffff168460010160008573ffffffffffffffffffffffffffffffffffffffff1673ffffffffffffffffffffffffffffffffffffffff168152602001908152602001600020546040516108c5906135b2565b60006040518083038185875af1925050503d8060008114610902576040519150601f19603f3d011682016040523d82523d6000602084013e610907565b606091505b5050809250508161094d576040517f08c379a000000000000000000000000000000000000000000000000000000000815260040161094490613613565b60405180910390fd5b8360010160008473ffffffffffffffffffffffffffffffffffffffff1673ffffffffffffffffffffffffffffffffffffffff168152602001908152602001600020548560060160008282546109a2919061354d565b9250508190555060008460010160008573ffffffffffffffffffffffffffffffffffffffff1673ffffffffffffffffffffffffffffffffffffffff1681526020019081526020016000208190555083600001805480610a0457610a03613633565b5b6001900381819060005260206000200160006101000a81549073ffffffffffffffffffffffffffffffffffffffff021916905590558080610a4490613662565b915050610814565b5082600001600081548110610a6457610a6361348e565b5b9060005260206000200160009054906101000a900473ffffffffffffffffffffffffffffffffffffffff1691508173ffffffffffffffffffffffffffffffffffffffff168360010160008473ffffffffffffffffffffffffffffffffffffffff1673ffffffffffffffffffffffffffffffffffffffff16815260200190815260200160002054604051610af6906135b2565b60006040518083038185875af1925050503d8060008114610b33576040519150601f19603f3d011682016040523d82523d6000602084013e610b38565b606091505b50508091505080610b7e576040517f08c379a0000000000000000000000000000000000000000000000000000000008152600401610b7590613613565b60405180910390fd5b8260010160008373ffffffffffffffffffffffffffffffffffffffff1673ffffffffffffffffffffffffffffffffffffffff16815260200190815260200160002054846006016000828254610bd3919061354d565b9250508190555060008360010160008473ffffffffffffffffffffffffffffffffffffffff1673ffffffffffffffffffffffffffffffffffffffff1681526020019081526020016000208190555082600001805480610c3557610c34613633565b5b6001900381819060005260206000200160006101000a81549073ffffffffffffffffffffffffffffffffffffffff02191690559055505050505050505050565b6611c37937e0800081565b60008181548110610c9057600080fd5b9060005260206000209060090201600091509050806000018054610cb3906134ec565b80601f0160208091040260200160405190810160405280929190818152602001828054610cdf906134ec565b8015610d2c5780601f10610d0157610100808354040283529160200191610d2c565b820191906000526020600020905b815481529060010190602001808311610d0f57829003601f168201915b505050505090806001018054610d41906134ec565b80601f0160208091040260200160405190810160405280929190818152602001828054610d6d906134ec565b8015610dba5780601f10610d8f57610100808354040283529160200191610dba565b820191906000526020600020905b815481529060010190602001808311610d9d57829003601f168201915b5050505050908060020160009054906101000a900473ffffffffffffffffffffffffffffffffffffffff16908060030154908060040154908060050154908060060154908060070154908060080160009054906101000a900460ff16905089565b60015481565b806000811280610e3657506000805490508112155b15610e6d576040517fa2b4a98200000000000000000000000000000000000000000000000000000000815260040160405180910390fd5b60008190506000808281548110610e8757610e8661348e565b5b906000526020600020906009020160405180610120016040529081600082018054610eb1906134ec565b80601f0160208091040260200160405190810160405280929190818152602001828054610edd906134ec565b8015610f2a5780601f10610eff57610100808354040283529160200191610f2a565b820191906000526020600020905b815481529060010190602001808311610f0d57829003601f168201915b50505050508152602001600182018054610f43906134ec565b80601f0160208091040260200160405190810160405280929190818152602001828054610f6f906134ec565b8015610fbc5780601f10610f9157610100808354040283529160200191610fbc565b820191906000526020600020905b815481529060010190602001808311610f9f57829003601f168201915b505050505081526020016002820160009054906101000a900473ffffffffffffffffffffffffffffffffffffffff1673ffffffffffffffffffffffffffffffffffffffff1673ffffffffffffffffffffffffffffffffffffffff16815260200160038201548152602001600482015481526020016005820154815260200160068201548152602001600782015481526020016008820160009054906101000a900460ff161515151581525050905060001515816101000151151514156110ae576040517febd7e12900000000000000000000000000000000000000000000000000000000815260040160405180910390fd5b83600081815481106110c3576110c261348e565b5b906000526020600020906009020160020160009054906101000a900473ffffffffffffffffffffffffffffffffffffffff1673ffffffffffffffffffffffffffffffffffffffff163373ffffffffffffffffffffffffffffffffffffffff1614611159576040517f30cd747100000000000000000000000000000000000000000000000000000000815260040160405180910390fd5b846000818154811061116e5761116d61348e565b5b906000526020600020906009020160040154421180156111be5750605a6000828154811061119f5761119e61348e565b5b906000526020600020906009020160040154426111bc919061354d565b115b156111f5576040517ff17efec600000000000000000000000000000000000000000000000000000000815260040160405180910390fd5b600081815481106112095761120861348e565b5b9060005260206000209060090201600501546000828154811061122f5761122e61348e565b5b9060005260206000209060090201600601541015611279576040517f4c4da86f00000000000000000000000000000000000000000000000000000000815260040160405180910390fd5b600080878154811061128e5761128d61348e565b5b9060005260206000209060090201905060008160020160009054906101000a900473ffffffffffffffffffffffffffffffffffffffff1673ffffffffffffffffffffffffffffffffffffffff1682600601546040516112ec906135b2565b60006040518083038185875af1925050503d8060008114611329576040519150601f19603f3d011682016040523d82523d6000602084013e61132e565b606091505b5050905080611372576040517f08c379a000000000000000000000000000000000000000000000000000000000815260040161136990613613565b60405180910390fd5b60008260080160006101000a81548160ff0219169083151502179055505050505050505050565b8160008112806113ae57506000805490508112155b156113e5576040517fa2b4a98200000000000000000000000000000000000000000000000000000000815260040160405180910390fd5b600081905060008082815481106113ff576113fe61348e565b5b906000526020600020906009020160405180610120016040529081600082018054611429906134ec565b80601f0160208091040260200160405190810160405280929190818152602001828054611455906134ec565b80156114a25780601f10611477576101008083540402835291602001916114a2565b820191906000526020600020905b81548152906001019060200180831161148557829003601f168201915b505050505081526020016001820180546114bb906134ec565b80601f01602080910402602001604051908101604052809291908181526020018280546114e7906134ec565b80156115345780601f1061150957610100808354040283529160200191611534565b820191906000526020600020905b81548152906001019060200180831161151757829003601f168201915b505050505081526020016002820160009054906101000a900473ffffffffffffffffffffffffffffffffffffffff1673ffffffffffffffffffffffffffffffffffffffff1673ffffffffffffffffffffffffffffffffffffffff16815260200160038201548152602001600482015481526020016005820154815260200160068201548152602001600782015481526020016008820160009054906101000a900460ff16151515158152505090506000151581610100015115151415611626576040517febd7e12900000000000000000000000000000000000000000000000000000000815260040160405180910390fd5b848460001515600083815481106116405761163f61348e565b5b906000526020600020906009020160080160009054906101000a900460ff1615151415611699576040517febd7e12900000000000000000000000000000000000000000000000000000000815260040160405180910390fd5b6000600283815481106116af576116ae61348e565b5b906000526020600020906002020160010160008373ffffffffffffffffffffffffffffffffffffffff1673ffffffffffffffffffffffffffffffffffffffff168152602001908152602001600020541415611736576040517f6e760a4f00000000000000000000000000000000000000000000000000000000815260040160405180910390fd5b426000838154811061174b5761174a61348e565b5b9060005260206000209060090201600401541115611795576040517fa061d49b00000000000000000000000000000000000000000000000000000000815260040160405180910390fd5b605a600083815481106117ab576117aa61348e565b5b906000526020600020906009020160040154426117c8919061354d565b1161185157600082815481106117e1576117e061348e565b5b906000526020600020906009020160050154600083815481106118075761180661348e565b5b90600052602060002090600902016006015410611850576040517fa061d49b00000000000000000000000000000000000000000000000000000000815260040160405180910390fd5b5b6000600288815481106118675761186661348e565b5b90600052602060002090600202019050600080898154811061188c5761188b61348e565b5b9060005260206000209060090201905060008873ffffffffffffffffffffffffffffffffffffffff168360010160008b73ffffffffffffffffffffffffffffffffffffffff1673ffffffffffffffffffffffffffffffffffffffff16815260200190815260200160002054604051611903906135b2565b60006040518083038185875af1925050503d8060008114611940576040519150601f19603f3d011682016040523d82523d6000602084013e611945565b606091505b5050905080611989576040517f08c379a000000000000000000000000000000000000000000000000000000000815260040161198090613613565b60405180910390fd5b8260010160008a73ffffffffffffffffffffffffffffffffffffffff1673ffffffffffffffffffffffffffffffffffffffff168152602001908152602001600020548260060160008282546119de919061354d565b9250508190555060008360010160008b73ffffffffffffffffffffffffffffffffffffffff1673ffffffffffffffffffffffffffffffffffffffff1681526020019081526020016000208190555060005b8360000180549050811015611bc5578973ffffffffffffffffffffffffffffffffffffffff16846000018281548110611a6b57611a6a61348e565b5b9060005260206000200160009054906101000a900473ffffffffffffffffffffffffffffffffffffffff1673ffffffffffffffffffffffffffffffffffffffff161415611bb2578360000160018560000180549050611aca919061354d565b81548110611adb57611ada61348e565b5b9060005260206000200160009054906101000a900473ffffffffffffffffffffffffffffffffffffffff16846000018281548110611b1c57611b1b61348e565b5b9060005260206000200160006101000a81548173ffffffffffffffffffffffffffffffffffffffff021916908373ffffffffffffffffffffffffffffffffffffffff16021790555083600001805480611b7857611b77613633565b5b6001900381819060005260206000200160006101000a81549073ffffffffffffffffffffffffffffffffffffffff02191690559055611bc5565b8080611bbd9061368c565b915050611a2f565b5050505050505050505050565b806000811280611be757506000805490508112155b15611c1e576040517fa2b4a98200000000000000000000000000000000000000000000000000000000815260040160405180910390fd5b60008190506000808281548110611c3857611c3761348e565b5b906000526020600020906009020160405180610120016040529081600082018054611c62906134ec565b80601f0160208091040260200160405190810160405280929190818152602001828054611c8e906134ec565b8015611cdb5780601f10611cb057610100808354040283529160200191611cdb565b820191906000526020600020905b815481529060010190602001808311611cbe57829003601f168201915b50505050508152602001600182018054611cf4906134ec565b80601f0160208091040260200160405190810160405280929190818152602001828054611d20906134ec565b8015611d6d5780601f10611d4257610100808354040283529160200191611d6d565b820191906000526020600020905b815481529060010190602001808311611d5057829003601f168201915b505050505081526020016002820160009054906101000a900473ffffffffffffffffffffffffffffffffffffffff1673ffffffffffffffffffffffffffffffffffffffff1673ffffffffffffffffffffffffffffffffffffffff16815260200160038201548152602001600482015481526020016005820154815260200160068201548152602001600782015481526020016008820160009054906101000a900460ff16151515158152505090506000151581610100015115151415611e5f576040517febd7e12900000000000000000000000000000000000000000000000000000000815260040160405180910390fd5b836611c37937e08000341015611ea1576040517f028072f200000000000000000000000000000000000000000000000000000000815260040160405180910390fd5b4260008281548110611eb657611eb561348e565b5b9060005260206000209060090201600401541015611f00576040517febd7e12900000000000000000000000000000000000000000000000000000000815260040160405180910390fd5b60008181548110611f1457611f1361348e565b5b906000526020600020906009020160020160009054906101000a900473ffffffffffffffffffffffffffffffffffffffff1673ffffffffffffffffffffffffffffffffffffffff163373ffffffffffffffffffffffffffffffffffffffff161415611fab576040517f5211d8bc00000000000000000000000000000000000000000000000000000000815260040160405180910390fd5b6000808681548110611fc057611fbf61348e565b5b90600052602060002090600902019050600060028781548110611fe657611fe561348e565b5b906000526020600020906002020190503482600601600082825461200a91906136d5565b9250508190555060008160010160003373ffffffffffffffffffffffffffffffffffffffff1673ffffffffffffffffffffffffffffffffffffffff1681526020019081526020016000205414156120c15780600001339080600181540180825580915050600190039060005260206000200160009091909190916101000a81548173ffffffffffffffffffffffffffffffffffffffff021916908373ffffffffffffffffffffffffffffffffffffffff1602179055505b348160010160003373ffffffffffffffffffffffffffffffffffffffff1673ffffffffffffffffffffffffffffffffffffffff168152602001908152602001600020600082825461211291906136d5565b9250508190555050505050505050565b83836103e884612132919061375a565b83600084511161216e576040517f0cff0aaa00000000000000000000000000000000000000000000000000000000815260040160405180910390fd5b60008351116121a9576040517f0cff0aaa00000000000000000000000000000000000000000000000000000000815260040160405180910390fd5b6000821315806121ba575060008113155b156121f1576040517f0cff0aaa00000000000000000000000000000000000000000000000000000000815260040160405180910390fd5b4282101561222b576040517f0cff0aaa00000000000000000000000000000000000000000000000000000000815260040160405180910390fd5b60006040518061012001604052808a81526020018981526020013373ffffffffffffffffffffffffffffffffffffffff1681526020018881526020016103e88961227591906137c4565b815260200187815260200160008152602001600154815260200160011515815250908060018154018082558091505060019003906000526020600020906009020160009091909190915060008201518160000190805190602001906122db929190612ebc565b5060208201518160010190805190602001906122f8929190612ebc565b5060408201518160020160006101000a81548173ffffffffffffffffffffffffffffffffffffffff021916908373ffffffffffffffffffffffffffffffffffffffff160217905550606082015181600301556080820151816004015560a0820151816005015560c0820151816006015560e082015181600701556101008201518160080160006101000a81548160ff0219169083151502179055505050600260018160018154018082558091505003906000526020600020905050600160008154809291906123c69061368c565b91905055507ff0d2a1ff9e10c9b07d8f94c324d145805e04328158ac7d6a0e3ff802b4eccdf4600180546123fa919061354d565b604051612407919061308b565b60405180910390a15050505050505050565b81600081128061242e57506000805490508112155b15612465576040517fa2b4a98200000000000000000000000000000000000000000000000000000000815260040160405180910390fd5b6000819050600080828154811061247f5761247e61348e565b5b9060005260206000209060090201604051806101200160405290816000820180546124a9906134ec565b80601f01602080910402602001604051908101604052809291908181526020018280546124d5906134ec565b80156125225780601f106124f757610100808354040283529160200191612522565b820191906000526020600020905b81548152906001019060200180831161250557829003601f168201915b5050505050815260200160018201805461253b906134ec565b80601f0160208091040260200160405190810160405280929190818152602001828054612567906134ec565b80156125b45780601f10612589576101008083540402835291602001916125b4565b820191906000526020600020905b81548152906001019060200180831161259757829003601f168201915b505050505081526020016002820160009054906101000a900473ffffffffffffffffffffffffffffffffffffffff1673ffffffffffffffffffffffffffffffffffffffff1673ffffffffffffffffffffffffffffffffffffffff16815260200160038201548152602001600482015481526020016005820154815260200160068201548152602001600782015481526020016008820160009054906101000a900460ff161515151581525050905060001515816101000151151514156126a6576040517febd7e12900000000000000000000000000000000000000000000000000000000815260040160405180910390fd5b846000600282815481106126bd576126bc61348e565b5b906000526020600020906002020160010160003373ffffffffffffffffffffffffffffffffffffffff1673ffffffffffffffffffffffffffffffffffffffff168152602001908152602001600020541415612744576040517f6e760a4f00000000000000000000000000000000000000000000000000000000815260040160405180910390fd5b600015156000828154811061275c5761275b61348e565b5b906000526020600020906009020160080160009054906101000a900460ff16151514156127b5576040517febd7e12900000000000000000000000000000000000000000000000000000000815260040160405180910390fd5b42600082815481106127ca576127c961348e565b5b906000526020600020906009020160040154111561286657600081815481106127f6576127f561348e565b5b9060005260206000209060090201600501546000828154811061281c5761281b61348e565b5b90600052602060002090600902016006015410612865576040517f5ae7f0ec00000000000000000000000000000000000000000000000000000000815260040160405180910390fd5b5b6000818154811061287a5761287961348e565b5b906000526020600020906009020160040154421180156128cb5750605a600082815481106128ab576128aa61348e565b5b906000526020600020906009020160040154426128c8919061354d565b11155b1561295457600081815481106128e4576128e361348e565b5b9060005260206000209060090201600501546000828154811061290a5761290961348e565b5b90600052602060002090600902016006015410612953576040517f5ae7f0ec00000000000000000000000000000000000000000000000000000000815260040160405180910390fd5b5b846000811361298f576040517f0cff0aaa00000000000000000000000000000000000000000000000000000000815260040160405180910390fd5b600086905060008089815481106129a9576129a861348e565b5b90600052602060002090600902019050600060028a815481106129cf576129ce61348e565b5b906000526020600020906002020190508060010160003373ffffffffffffffffffffffffffffffffffffffff1673ffffffffffffffffffffffffffffffffffffffff16815260200190815260200160002054831115612a6d578060010160003373ffffffffffffffffffffffffffffffffffffffff1673ffffffffffffffffffffffffffffffffffffffff1681526020019081526020016000205492505b60003373ffffffffffffffffffffffffffffffffffffffff1684604051612a93906135b2565b60006040518083038185875af1925050503d8060008114612ad0576040519150601f19603f3d011682016040523d82523d6000602084013e612ad5565b606091505b5050905080612b19576040517f08c379a0000000000000000000000000000000000000000000000000000000008152600401612b1090613613565b60405180910390fd5b8160010160003373ffffffffffffffffffffffffffffffffffffffff1673ffffffffffffffffffffffffffffffffffffffff16815260200190815260200160002054841415612cfd5760005b8260000180549050811015612cfb573373ffffffffffffffffffffffffffffffffffffffff16836000018281548110612ba157612ba061348e565b5b9060005260206000200160009054906101000a900473ffffffffffffffffffffffffffffffffffffffff1673ffffffffffffffffffffffffffffffffffffffff161415612ce8578260000160018460000180549050612c00919061354d565b81548110612c1157612c1061348e565b5b9060005260206000200160009054906101000a900473ffffffffffffffffffffffffffffffffffffffff16836000018281548110612c5257612c5161348e565b5b9060005260206000200160006101000a81548173ffffffffffffffffffffffffffffffffffffffff021916908373ffffffffffffffffffffffffffffffffffffffff16021790555082600001805480612cae57612cad613633565b5b6001900381819060005260206000200160006101000a81549073ffffffffffffffffffffffffffffffffffffffff02191690559055612cfb565b8080612cf39061368c565b915050612b65565b505b83836006016000828254612d11919061354d565b92505081905550838260010160003373ffffffffffffffffffffffffffffffffffffffff1673ffffffffffffffffffffffffffffffffffffffff1681526020019081526020016000206000828254612d69919061354d565b925050819055505050505050505050505050565b6000816000811280612d9457506000805490508112155b15612dcb576040517fa2b4a98200000000000000000000000000000000000000000000000000000000815260040160405180910390fd5b60028381548110612ddf57612dde61348e565b5b906000526020600020906002020160000180549050915050919050565b6000826000811280612e1357506000805490508112155b15612e4a576040517fa2b4a98200000000000000000000000000000000000000000000000000000000815260040160405180910390fd5b600060028581548110612e6057612e5f61348e565b5b906000526020600020906002020190508060010160008573ffffffffffffffffffffffffffffffffffffffff1673ffffffffffffffffffffffffffffffffffffffff168152602001908152602001600020549250505092915050565b828054612ec8906134ec565b90600052602060002090601f016020900481019282612eea5760008555612f31565b82601f10612f0357805160ff1916838001178555612f31565b82800160010185558215612f31579182015b82811115612f30578251825591602001919060010190612f15565b5b509050612f3e9190612f42565b5090565b5b80821115612f5b576000816000905550600101612f43565b5090565b6000604051905090565b600080fd5b600080fd5b6000819050919050565b612f8681612f73565b8114612f9157600080fd5b50565b600081359050612fa381612f7d565b92915050565b60008060408385031215612fc057612fbf612f69565b5b6000612fce85828601612f94565b9250506020612fdf85828601612f94565b9150509250929050565b600073ffffffffffffffffffffffffffffffffffffffff82169050919050565b600061301482612fe9565b9050919050565b61302481613009565b82525050565b600060208201905061303f600083018461301b565b92915050565b60006020828403121561305b5761305a612f69565b5b600061306984828501612f94565b91505092915050565b6000819050919050565b61308581613072565b82525050565b60006020820190506130a0600083018461307c565b92915050565b6130af81613072565b81146130ba57600080fd5b50565b6000813590506130cc816130a6565b92915050565b6000602082840312156130e8576130e7612f69565b5b60006130f6848285016130bd565b91505092915050565b600081519050919050565b600082825260208201905092915050565b60005b8381101561313957808201518184015260208101905061311e565b83811115613148576000848401525b50505050565b6000601f19601f8301169050919050565b600061316a826130ff565b613174818561310a565b935061318481856020860161311b565b61318d8161314e565b840191505092915050565b60008115159050919050565b6131ad81613198565b82525050565b60006101208201905081810360008301526131ce818c61315f565b905081810360208301526131e2818b61315f565b90506131f1604083018a61301b565b6131fe606083018961307c565b61320b608083018861307c565b61321860a083018761307c565b61322560c083018661307c565b61323260e083018561307c565b6132406101008301846131a4565b9a9950505050505050505050565b61325781613009565b811461326257600080fd5b50565b6000813590506132748161324e565b92915050565b6000806040838503121561329157613290612f69565b5b600061329f85828601612f94565b92505060206132b085828601613265565b9150509250929050565b600080fd5b600080fd5b7f4e487b7100000000000000000000000000000000000000000000000000000000600052604160045260246000fd5b6132fc8261314e565b810181811067ffffffffffffffff8211171561331b5761331a6132c4565b5b80604052505050565b600061332e612f5f565b905061333a82826132f3565b919050565b600067ffffffffffffffff82111561335a576133596132c4565b5b6133638261314e565b9050602081019050919050565b82818337600083830152505050565b600061339261338d8461333f565b613324565b9050828152602081018484840111156133ae576133ad6132bf565b5b6133b9848285613370565b509392505050565b600082601f8301126133d6576133d56132ba565b5b81356133e684826020860161337f565b91505092915050565b6000806000806080858703121561340957613408612f69565b5b600085013567ffffffffffffffff81111561342757613426612f6e565b5b613433878288016133c1565b945050602085013567ffffffffffffffff81111561345457613453612f6e565b5b613460878288016133c1565b935050604061347187828801612f94565b925050606061348287828801612f94565b91505092959194509250565b7f4e487b7100000000000000000000000000000000000000000000000000000000600052603260045260246000fd5b7f4e487b7100000000000000000000000000000000000000000000000000000000600052602260045260246000fd5b6000600282049050600182168061350457607f821691505b60208210811415613518576135176134bd565b5b50919050565b7f4e487b7100000000000000000000000000000000000000000000000000000000600052601160045260246000fd5b600061355882613072565b915061356383613072565b9250828210156135765761357561351e565b5b828203905092915050565b600081905092915050565b50565b600061359c600083613581565b91506135a78261358c565b600082019050919050565b60006135bd8261358f565b9150819050919050565b7f5472616e73666572206661696c65642e00000000000000000000000000000000600082015250565b60006135fd60108361310a565b9150613608826135c7565b602082019050919050565b6000602082019050818103600083015261362c816135f0565b9050919050565b7f4e487b7100000000000000000000000000000000000000000000000000000000600052603160045260246000fd5b600061366d82613072565b915060008214156136815761368061351e565b5b600182039050919050565b600061369782613072565b91507fffffffffffffffffffffffffffffffffffffffffffffffffffffffffffffffff8214156136ca576136c961351e565b5b600182019050919050565b60006136e082613072565b91506136eb83613072565b9250827fffffffffffffffffffffffffffffffffffffffffffffffffffffffffffffffff038211156137205761371f61351e565b5b828201905092915050565b7f4e487b7100000000000000000000000000000000000000000000000000000000600052601260045260246000fd5b600061376582612f73565b915061377083612f73565b9250826137805761377f61372b565b5b600160000383147f8000000000000000000000000000000000000000000000000000000000000000831416156137b9576137b861351e565b5b828205905092915050565b60006137cf82613072565b91506137da83613072565b9250826137ea576137e961372b565b5b82820490509291505056fea264697066735822122093ce1a384f2fca04a4ce15623ca81fa7ecf317125aaa9405d00742ebff3aa33a64736f6c63430008080033",
  "linkReferences": {},
  "deployedLinkReferences": {}
}